{"abi":[{"type":"function","name":"verifyProof","inputs":[{"name":"a","type":"uint256[2]","internalType":"uint256[2]"},{"name":"b","type":"uint256[2][2]","internalType":"uint256[2][2]"},{"name":"c","type":"uint256[2]","internalType":"uint256[2]"},{"name":"input","type":"uint256[1]","internalType":"uint256[1]"}],"outputs":[{"name":"","type":"bool","internalType":"bool"}],"stateMutability":"view"}],"bytecode":{"object":"0x6080604052348015600f57600080fd5b5061020e8061001f6000396000f3fe608060405234801561001057600080fd5b506004361061002b5760003560e01c806343753b4d14610030575b600080fd5b61004861003e3660046100f1565b5060019392505050565b604051901515815260200160405180910390f35b604051601f8201601f1916810167ffffffffffffffff8111828210171561009357634e487b7160e01b600052604160045260246000fd5b604052919050565b600082601f8301126100ac57600080fd5b60006100b8604061005c565b90508060408401858111156100cc57600080fd5b845b818110156100e65780358352602092830192016100ce565b509195945050505050565b600080600080610120858703121561010857600080fd5b610112868661009b565b935085605f86011261012357600080fd5b604061012e8161005c565b8060c088018981111561014057600080fd5b8389015b81811015610165576101568b8261009b565b84526020909301928401610144565b508196506101738a8261009b565b9550505050506101008501600087601f83011261018e578081fd5b80602061019a8161005c565b915081602085018b8111156101ad578485fd5b5b808610156101c7578535825294820194908201906101ae565b50979a96995094975095505050505056fea2646970667358221220e138a7578d5f0123704ddb6de4133195fd7165f12a47a2f0b40d0e1526c1e95864736f6c634300081a0033","linkReferences":{}},"methodIdentifiers":{"verifyProof(uint256[2],uint256[2][2],uint256[2],uint256[1])":"43753b4d"},"id":0}