{"abi":[{"type":"constructor","inputs":[{"name":"_verifierContract","type":"address","internalType":"address"}],"stateMutability":"nonpayable"},{"type":"receive","stateMutability":"payable"},{"type":"function","name":"deposit","inputs":[],"outputs":[],"stateMutability":"payable"},{"type":"function","name":"deposits","inputs":[{"name":"","type":"address","internalType":"address"}],"outputs":[{"name":"","type":"uint256","internalType":"uint256"}],"stateMutability":"view"},{"type":"function","name":"verifiedAddress","inputs":[],"outputs":[{"name":"","type":"address","internalType":"address"}],"stateMutability":"view"},{"type":"function","name":"verifyOwnership","inputs":[{"name":"a","type":"uint256[2]","internalType":"uint256[2]"},{"name":"b","type":"uint256[2][2]","internalType":"uint256[2][2]"},{"name":"c","type":"uint256[2]","internalType":"uint256[2]"},{"name":"input","type":"uint256[1]","internalType":"uint256[1]"}],"outputs":[],"stateMutability":"nonpayable"},{"type":"function","name":"withdraw","inputs":[{"name":"to","type":"address","internalType":"address payable"},{"name":"amount","type":"uint256","internalType":"uint256"},{"name":"a","type":"uint256[2]","internalType":"uint256[2]"},{"name":"b","type":"uint256[2][2]","internalType":"uint256[2][2]"},{"name":"c","type":"uint256[2]","internalType":"uint256[2]"},{"name":"input","type":"uint256[1]","internalType":"uint256[1]"}],"outputs":[],"stateMutability":"nonpayable"},{"type":"event","name":"Verified","inputs":[{"name":"owner","type":"address","indexed":true,"internalType":"address"}],"anonymous":false},{"type":"event","name":"Withdrawal","inputs":[{"name":"to","type":"address","indexed":true,"internalType":"address"},{"name":"amount","type":"uint256","indexed":false,"internalType":"uint256"}],"anonymous":false}],"bytecode":{"object":"0x6080604052348015600f57600080fd5b50604051610901380380610901833981016040819052602c916050565b600080546001600160a01b0319166001600160a01b0392909216919091179055607e565b600060208284031215606157600080fd5b81516001600160a01b0381168114607757600080fd5b9392505050565b6108748061008d6000396000f3fe60806040526004361061004e5760003560e01c80633a9495481461005a5780633faf39e61461007c5780639fa6a6f5146100b9578063d0e30db0146100d9578063fc7e286d146100e157600080fd5b3661005557005b600080fd5b34801561006657600080fd5b5061007a610075366004610615565b61011c565b005b34801561008857600080fd5b5060025461009c906001600160a01b031681565b6040516001600160a01b0390911681526020015b60405180910390f35b3480156100c557600080fd5b5061007a6100d436600461068b565b61032d565b61007a610433565b3480156100ed57600080fd5b5061010e6100fc3660046106e5565b60016020526000908152604090205481565b6040519081526020016100b0565b6002546001600160a01b031633146101735760405162461bcd60e51b815260206004820152601560248201527420b2323932b9b9903737ba103b32b934b334b2b21760591b60448201526064015b60405180910390fd5b336000908152600160205260409020548511156101ca5760405162461bcd60e51b815260206004820152601560248201527424b739bab33334b1b4b2b73a103130b630b731b29760591b604482015260640161016a565b6000546040516343753b4d60e01b81526001600160a01b03909116906343753b4d90610200908790879087908790600401610755565b602060405180830381865afa15801561021d573d6000803e3d6000fd5b505050506040513d601f19601f8201168201806040525081019061024191906107da565b6102875760405162461bcd60e51b815260206004820152601760248201527624b73b30b634b2103d3596a9a720a92590383937b7b31760491b604482015260640161016a565b33600090815260016020526040812080548792906102a6908490610812565b90915550506040516001600160a01b0387169086156108fc029087906000818181858888f193505050501580156102e1573d6000803e3d6000fd5b50856001600160a01b03167f7fcf532c15f0a6db0bd6d0e038bea71d30d808c7d98cb3bf7268a95bf5081b658660405161031d91815260200190565b60405180910390a2505050505050565b600080546040516343753b4d60e01b81526001600160a01b03909116906343753b4d90610364908890889088908890600401610755565b602060405180830381865afa158015610381573d6000803e3d6000fd5b505050506040513d601f19601f820116820180604052508101906103a591906107da565b9050806103ee5760405162461bcd60e51b815260206004820152601760248201527624b73b30b634b2103d3596a9a720a92590383937b7b31760491b604482015260640161016a565b600280546001600160a01b031916339081179091556040517f6a6455914f452787eb3985452aceedc1000fb545e394eb3b370e3d08958e0a5b90600090a25050505050565b6000341161048e5760405162461bcd60e51b815260206004820152602260248201527f4465706f736974206d7573742062652067726561746572207468616e207a6572604482015261379760f11b606482015260840161016a565b33600090815260016020526040812080543492906104ad90849061082b565b9091555050565b6001600160a01b03811681146104c957600080fd5b50565b604051601f8201601f1916810167ffffffffffffffff8111828210171561050357634e487b7160e01b600052604160045260246000fd5b604052919050565b600082601f83011261051c57600080fd5b600061052860406104cc565b905080604084018581111561053c57600080fd5b845b8181101561055657803583526020928301920161053e565b509195945050505050565b600082601f83011261057257600080fd5b604061057d816104cc565b80608085018681111561058f57600080fd5b855b818110156105b2576105a3888261050b565b84526020909301928401610591565b50909695505050505050565b600082601f8301126105cf57600080fd5b600060206105dc816104cc565b91508160208501868111156105f057600080fd5b855b8181101561060957803583529183019183016105f2565b50929695505050505050565b600080600080600080610160878903121561062f57600080fd5b863561063a816104b4565b955060208701359450610650886040890161050b565b935061065f8860808901610561565b925061066f88610100890161050b565b915061067f8861014089016105be565b90509295509295509295565b60008060008061012085870312156106a257600080fd5b6106ac868661050b565b93506106bb8660408701610561565b92506106ca8660c0870161050b565b91506106da8661010087016105be565b905092959194509250565b6000602082840312156106f757600080fd5b8135610702816104b4565b9392505050565b8060005b600281101561072c57815184526020938401939091019060010161070d565b50505050565b8060005b600181101561072c578151845260209384019390910190600101610736565b61012081016107648287610709565b604082018560005b60028110156107b35781518360005b600281101561079a57825182526020928301929091019060010161077b565b505050604092909201916020919091019060010161076c565b5050506107c360c0830185610709565b6107d1610100830184610732565b95945050505050565b6000602082840312156107ec57600080fd5b8151801515811461070257600080fd5b634e487b7160e01b600052601160045260246000fd5b81810381811115610825576108256107fc565b92915050565b80820180821115610825576108256107fc56fea26469706673582212201082640089ddc34f402536ad7fbcb699d837a8870504d273909818de9e833a7c64736f6c634300081a0033","linkReferences":{}},"methodIdentifiers":{"deposit()":"d0e30db0","deposits(address)":"fc7e286d","verifiedAddress()":"3faf39e6","verifyOwnership(uint256[2],uint256[2][2],uint256[2],uint256[1])":"9fa6a6f5","withdraw(address,uint256,uint256[2],uint256[2][2],uint256[2],uint256[1])":"3a949548"},"id":0}